:1029D600122AB1E4FF122A467D407C1FE4FF122032
:1029E600B37F407E9C122A8E7D407C1F7F02122080
:0A29F600B37F407E9C122A8E80D928
:0D2ACE000001022305060706052302010092
:10272400E4FF122A46E4FD7F0112297D7F607EEAE0
:10273400122A8EE4FD7F0212297D7F607EEA122A2E
:102744008EE4FD7F0312297D7F607EEA122A8EE4E7
:10275400FD7F0412297D7F607EEA122A8E7F607ECF
:10276400EA122A8EE4FF122A467F307E75122790E1
:102774007D07E4FF12297D7F607EEA122A8E7F7036
:0C2784007E1712269A7F607EEA022A8EE1
:1022900078007481F27800E2FFD394004024EF24A8
:1022A000FEFF7B01E4FD1227F97F407E1F122A8E7C
:1022B0007800E214FFE4FBFD1227F97800E214F243
:1022C00080D37F407E1F122A8EE47800F27800E2ED
:1022D000FFC3948850227B017D011227F97F407E45
:1022E0001F122A8E7800E224F8FFE4FB7D011227FA
:1022F000F97800E204F280D57F407E1F122A8E78A2
:10230000007481F27800E2FFD394004019EF24FEBC
:10231000FF7B01E4FD1227F97F407E1F122A8E7891
:1023200000E214F280DE7F407E1F122A8EE47800E5
:10233000F27800E2FFC394805019EF24F8FFE4FB29
:102340007D011227F97F407E1F122A8E7800E20459
:0A235000F280DE7F607EEA022A8E32
:101EAF00E47801F27801E2FD78AD7407F208EDF203
:101EBF00087407F2087401F208F2E4FBFF12243EE3
:101ECF007F207E4E122A8E7801E2C3648094875061
:101EDF001AE2FD78AD7407F208EDF2087407F20804
:101EEF007401F2E408F2FBFF12243E7801E204F2DF
:101EFF00E2C36480948840AC78017407F27801E201
:101F0F00FD78AD7407F208EDF2087407F20874015A
:101F1F00F208F2E4FBFF12243E7F207E4E122A8E3F
:101F2F007801E2D364809480401AE2FD78AD7407A3
:101F3F00F208EDF2087407F2087401F2E408F2FBFC
:101F4F00FF12243E7801E214F2E2C36480948050C1
:101F5F00ACE47801F27801E2FD78AD7407F208ED98
:101F6F00F2087407F2087401F208F2E4FBFF12247E
:101F7F003E7F207E4E122A8E7801E2C364809487C2
:101F8F00501AE2FD78AD7407F208EDF2087407F20B
:101F9F00087401F2E408F2FBFF12243E7801E20418
:091FAF00F2E2C36480948840ACA6
:011FB8002206
:1014520078037407F27803E2FFC36480948F500D1F
:1014620074FD2FF8EFF27803E204F280E8E47802E8
:10147200F2E47803F27803E2FFC364809488504C6C
:1014820074042FF8E2FFC36480948040047E0180DC
:10149200027E00C3EF6480948850047F0180027F43
:1014A20000EF5E60207803E2FB2404F8E2FD78B6E8
:1014B2007407F208EDF27803E278B8F2087401F2E8
:1014C200E4FF121DA27803E204F280A9E47803F299
:1014D2007803E2FFC364809488505B74042FF8E2BF
:1014E200FFFD3395E0FCED2401FDE43CFCC3ED94EB
:1014F20008EC6480948050047E0180027E00C3EF79
:101502006480948040047F0180027F00EE5F601F50
:101512007803E2FB2404F8E204FD78B67407F208CB
:10152200EDF27803E278B8F2E408F2FF121DA27835
:1015320003E204F2809AE47803F27803E2FFC364E0
:10154200809488501C74042FF8E2D3648094804005
:10155200097803E22404F8E214F27803E204F28048
:10156200D97F987E3A122A8E7802E204F2E2D3649C
:101572008094905003021473E47803F27803E2FF3C
:10158200C374019FFE74042FF8EEF27803E204F2B2
:10159200E2B408E8E47802F2E47803F27803E2FFC6
:1015A200C364809488504C74042FF8E2FFC36480B3
:1015B200948040047E0180027E00C3EF64809488A0
:1015C20050047F0180027F00EF5E60207803E2FB1F
:1015D2002404F8E2FD78B67407F208EDF27803E22B
:1015E20078B8F2087401F2E4FF121DA27803E20453
:1015F200F280A9E47803F27803E2FFC3648094885E
:10160200504C74042FF8E2FF14C364809487500492
:101612007E0180027E00D3EF6480948040047F01CB
:1016220080027F00EE5F601F7803E2FB2404F8E291
:1016320014FD78B67407F208EDF27803E278B8F296
:10164200E408F2FF121DA27803E204F280A9E47812
:1016520003F27803E2FFC364809488501C74042F61
:10166200F8E2C36480948750097803E22404F8E224
:1016720004F27803E204F280D97F987E3A122A8E2D
:101682007802E204F2E2D364809490500302159A45
:011692002235
:10000E00780C743AF2087498F2087408F20814F234
:10001E00780FE2FFC36480948B500D74092FF8EFB4
:10002E00F2780FE204F280E8780EE2FF14F2EF703D
:10003E00030200EDE408F2780FE2FFC364809484BB
:10004E00506574102FF8E2C3648094885024780FA2
:10005E00E2FF2410F8E2FD780FE2FBC374079BFE6B
:10006E0078ADF208EDF208EEF2E408F20804F212AE
:10007E00243E780FE22410F8E2FEC3648094875089
:10008E001F780FE2FFEE04FDE2FBC374079BFE78C0
:10009E00ADF208EDF208EEF2E408F208F212243E98
:1000AE00780FE204F28090E4780FF2780FE2FFC34B
:1000BE0064809484501C74102FF8E2D3648094836F
:1000CE004009780FE22410F8E214F2780FE204F2FD
:1000DE0080D9780CE2FE08E2FF122A8E02003678F2
:1000EE000E7403F2E408F2780FE2FFC374059FFE6C
:1000FE0074102FF8EEF2780FE204F2E2B404E8780E
:10010E000EE2FF14F2EF70030201C5087401F278DB
:10011E000FE2FFC364809484506574102FF8E2C31D
:10012E00648094845024780FE2FF2410F8E2FD7866
:10013E000FE2FBC374079BFE78ADF208EDF208EEFA
:10014E00F2E408F20804F212243E780FE22410F8CA
:10015E00E2FEC364809483501F780FE2FFEE04FD2D
:10016E00E2FBC374079BFE78ADF208EDF208EEF2E7
:10017E00E408F208F212243E780FE204F28090E4D2
:10018E00780FF2780FE2FFC364809484501C7410D1
:10019E002FF8E2D3648094804009780FE22410F89F
:1001AE00E214F2780FE204F280D9780CE2FE08E253
:1001BE00FF122A8E02010D780E7403F2087401F2FA
:1001CE00780FE2FFC374049FFE74102FF8EEF278DE
:1001DE000FE204F2E2B404E8780EE2FF14F2EF70DC
:1001EE000302029E087401F2780FE2FFC36480944A
:1001FE0084506474102FF8E2C36480948040247895
:10020E000FE2FF2410F8E2FD780FE2FBC374079BA8
:10021E00FE78ADF208EDF208EEF2E408F20804F210
:10022E0012243E780FE22410F8E2FED3648094800C
:10023E00401E780FE2FFEE14FDE2FB74079BFE7882
:10024E00ADF208EDF208EEF2E408F208F212243EE6
:10025E00780FE204F28091780F7401F2780FE2FFCA
:10026E00C364809484501C74102FF8E2C36480948D
:10027E00835009780FE22410F8E204F2780FE204BA
:10028E00F280D9780CE2FE08E2FF122A8E0201E615
:10029E00780E7403F2E408F2780FE2FF04FE741095
:1002AE002FF8EEF2780FE204F2E2B404EB780EE2ED
:1002BE00FF14F2EF7003020364087401F2780FE288
:1002CE00FFC364809484506474102FF8E2D364806A
:1002DE0094834024780FE2FF2410F8E2FD780FE2B9
:1002EE00FBC374079BFE78ADF208EDF208EEF2E464
:1002FE0008F20804F212243E780FE22410F8E2FE0F
:10030E00D364809483401E780FE2FFEE14FDE2FB6F
:10031E0074079BFE78ADF208EDF208EEF2E408F2F7
:10032E0008F212243E780FE204F28091E4780FF284
:10033E00780FE2FFC364809484500E74102FF8E29D
:10034E0004F2780FE204F280E7780CE2FE08E2FF96
:10035E00122A8E0202BB780E7403F208F2780FE2B4
:10036E00FFC364809486500D740E2FF8EFF2780F51
:10037E00E204F280E8780EE2FF14F2EF700302045A
:10038E0020087401F2780FE2FF2410F8E2FD780FD6
:10039E00E2FBC374079BFE78ADF208EDF208EEF2B5
:1003AE00E408F20804F212243E780FE2FF2410F85B
:1003BE00E204FD780FE2FBC374079BFE78ADF208F2
:1003CE00EDF208EEF2E408F208F212243E780FE2A3
:1003DE0004F2E2C36480948440ABE4780FF2780FA9
:1003EE00E2FFC364809484501C74102FF8E2D3642F
:1003FE008094834009780FE22410F8E214F2780F0B
:10040E00E204F280D9780CE2FE08E2FF122A8E0294
:10041E000383780E7403F2E408F2780FE2FFC374DC
:10042E00059FFE74102FF8EEF2780FE204F2E2B49C
:10043E0004E8780EE2FF14F2EF70030204F8087479
:10044E0001F2780FE2FFC364809484506574102F1C
:10045E00F8E2C3648094845024780FE2FF2410F8ED
:10046E00E2FD780FE2FBC374079BFE78ADF208ED58
:10047E00F208EEF2E408F20804F212243E780FE2DB
:10048E002410F8E2FEC364809483501F780FE2FFBD
:10049E00EE04FDE2FBC374079BFE78ADF208EDF2AD
:1004AE0008EEF2E408F208F212243E780FE204F2AB
:1004BE008090E4780FF2780FE2FFC364809484504A
:1004CE001C74102FF8E2D3648094804009780FE2F8
:1004DE002410F8E214F2780FE204F280D9780CE2DC
:1004EE00FE08E2FF122A8E020440780E7403F2E434
:1004FE0008F2780FE2FFC374039FFE74102FF8EE1C
:10050E00F2780FE204F2E2B404E878107402F278A2
:10051E000EE2FF14F2EF70030205D8E408F2780F32
:10052E00E2FFC364809483506474102FF8E2C364B6
:10053E008094804024780FE2FF2410F8E2FD780FBB
:10054E00E2FBC374079BFE78ADF208EDF208EEF203
:10055E00E408F20804F212243E780FE22410F8E2C6
:10056E00FEC364809480401E780FE2FFEE04FDE22D
:10057E00FB74079BFE78ADF208EDF208EEF2E4088C
:10058E00F208F212243E780FE204F28091E4780F22
:10059E00F2780FE2FFC364809484502118E2FEC308
:1005AE0074059EC36480F8EF6480985009780FE25A
:1005BE002410F8E214F2780FE204F280D4780CE200
:1005CE00FE08E2FF122A8E02051D780E740AF2E46E
:1005DE0008F2780FE2FF24FEFE74102FF8EEF27888
:1005EE000FE204F2E2B404EA780EE2FF14F2EF70C6
:1005FE00030206ACE408F2780FE2FFC36480948431
:10060E00506474102FF8E2C3648094804024780FF5
:10061E00E2FF2410F8E2FD780FE2FBC374079BFEA5
:10062E0078ADF208EDF208EEF2E408F20804F212E8
:10063E00243E780FE22410F8E2FEC36480948040DA
:10064E001E780FE2FFEE14FDE2FB74079BFE78AD01
:10065E00F208EDF208EEF2E408F208F212243E7807
:10066E000FE204F28091E4780FF2780FE2FFC36498
:10067E00809484501C74102FF8E2C36480948750C9
:10068E0009780FE22410F8E204F2780FE204F28007
:0E069E00D9780CE2FE08E2FF122A8E0205F661
:0106AC00222B
:101FB9007D107C277F011221A47D107C277F0212CE
:101FC90021A47D107C277F031221A47D107C27E4A6
:101FD900FF1221A47D107C277F011221A47D107C92
:101FE900277F021221A47D107C277F031221A4E4FC
:101FF9007814F2E47815F2E47816F27816E2FFC361
:102009009408400302208D18E2FE18E275F008A436
:102019002472F582E4341DF583E5822EF582E435D8
:1020290083F583E493FEA807088002C313D8FC3024
:10203900E04A78177401F27817E2FBC39408503C20
:102049007815E2FF08E2FEC374079EFD78C47401A7
:10205900F21228FE7817E214FB60137815E2FF08E4
:10206900E2FEC374079EFDE478C4F21228FE7F885D
:102079007E13122A8E7817E204F280BB7816E204E6
:10208900F20220047815E204F2E2C3940850030234
:1020990020007D987C3A7F071229407814E204F2E7
:0920A900E2C394035003021FFC82
:0120B200220B
:101693007819740BF20874B8F27D107C27E4FF12FA
:1016A30021A47D107C277F011221A47D107C277F3C
:1016B300021221A47D107C277F031221A47D107CBC
:1016C30027E4FF1221A47D107C277F011221A47D32
:1016D300107C277F021221A47D107C277F03122117
:1016E300A47D107C27E4FF1221A47D107C277F01B9
:1016F3001221A47D107C277F021221A47D107C2758
:10170300E4FF12184D7D107C277F0112184D7D10C8
:101713007C277F0212184D7D107C277F0312184D02
:101723007D107C27E4FF12184D7D107C277F01126A
:10173300184D7D107C277F0212184D7D107C277F6A
:101743000312184DE47818F27818E2FFC394085096
:101753002DE2FDC374079D78ADF208EFF20874071C
:10176300F2087401F208F2E4FBFF12243E7819E256
:10177300FE08E2FF122A8E7818E204F280CA7F3054
:101783007E75122A8E7819E2FC08E2FDE4FF121935
:10179300B17F307E75122A8E7819E2FC08E2FD7F54
:1017A300011219B17F307E75122A8E7819E2FC0876
:1017B300E2FD7F021219B17F307E75122A8E7819ED
:1017C300E2FC08E2FD7F031219B17F307E75122A15
:1017D3008E7819E2FC08E2FDE4FF1219B17F307E36
:1017E30075122A8E7819E2FC08E2FD7F011219B105
:1017F3007F307E75122A8E7819E2FC08E2FD7F02A3
:101803001219B17F307E75122A8E7819E2FC08E234
:10181300FD7F031219B178187407F27818E2FF7884
:10182300ADF2087407F208F2087401F2E408F2FB5F
:10183300FD12243E7819E2FE08E2FF122A8E781880
:09184300E214F2E2D3940050D249
:01184C002279
:1029AB00781B7405F2781BE2FFC39408501C7D1052
:1029BB007C271220B37F607EEA122A8E7F607EEA2C
:0A29CB00122A8E781BE204F280DB72
:0129D50022DF
:1006AD00E4781CF2781CE2FF78ADF2087407F208CA
:1006BD00F2087401F208F2E4FBFD12243E781CE20C
:1006CD00601714FF78ADF2087407F208F208740190
:1006DD00F2E408F2FBFD12243E7F107E27122A8ED3
:1006ED00781CE204F2E2C36480948840B77D107CEC
:1006FD00277F0312184D7D107C27E4FF12184D7DC6
:10070D00107C277F0112184DE4781CF2781CE2FE54
:10071D00C374069EFDFFC374069E78B6F208F208F8
:10072D007407F2087401F2E4FB121DA2781CE2FFBB
:10073D0078B6F2087407F208F2E408F2FB7D0712AE
:10074D001DA27F107E27122A8E781CE204F2E2C3CE
:10075D006480948740B6E4781CF2781CE2FFC36491
:10076D00809488500E741E2FF8740EF2781CE204DB
:10077D00F280E7E4781CF2E4FF122A46E4781DF2D9
:10078D00781DE2FB241EF8E2FE75F01C847828E546
:10079D00F0F2E2901D3E93FDC41354077826F2FA51
:1007AD00ED1313540708F2EE24F2FFE434FFFE7C40
:1007BD00007D1C1223977828EDF2E293FFC41354A9
:1007CD0007FE08F2EF1313540708F2FCAF02782767
:1007DD00E2FD78B6EEF208ECF2781DE278B8F20898
:1007ED007401F2121DA2781DE204F2E2C3940840D6
:1007FD008FE4781DF2781DE2FFC39408504318E290
:10080D00FDFB3395E0FAD3EB9F7480F86A984004B2
:10081D007F0180027F00ED24B9FE781DE2FDD3EE4D
:10082D006480F8ED64809840047E0180027E00EFC4
:10083D005E6007741E2DF8E204F2781DE204F2806A
:10084D00B47F887E13122A8E781CE204F2E2C36410
:10085D008094D55003020784E4781CF2E4FF122A39
:10086D0046E4781DF2781DE2FB241EF8E2FE75F0D9
:10087D001C847828E5F0F2E2901D3E93FDC41354DC
:10088D00077826F2FAED1313540708F2EE24F2FF5F
:10089D00E434FFFE7C007D1C1223977828EDF2E2F4
:1008AD0093FFC4135407FE08F2EF1313540708F215
:1008BD00FCAF027827E2FD78B6EEF208ECF2781D77
:1008CD00E278B8F2087401F2121DA2781DE204F26A
:1008DD00E2C39408408FE4781DF2781DE2FFC394C3
:1008ED0008504318E2FDFB3395E0FAD3EB9F74807B
:1008FD00F86A9840047F0180027F00ED24B9FE78EC
:10090D001DE2FDD3EE6480F8ED64809840047E0115
:10091D0080027E00EF5E6007741E2DF8E214F278FF
:10092D001DE204F280B47F887E13122A8E781CE2B9
:10093D0004F2E2C3648094D55003020869E4781C84
:10094D00F2E4FF122A46781EE2FE75F01C84782828
:10095D00E5F0F2E2901D3E93FDC41354077826F2A4
:10096D00FBED1313540708F2FAEE24F2FFE434FF03
:10097D00FE7C007D1C1223977828EDF2E293FFC4D4
:10098D00135407FE08F2EF1313540708F2FCAF03DC
:10099D00AD0278ADEEF208ECF2087407F2E408F25D
:1009AD000804F2E4FB12243E7826E2FF08E2FD780B
:1009BD0029E278ADF2782AE278AEF2087406F2E414
:1009CD0008F20804F2FB12243E781EE204F27F883E
:1009DD007E13122A8E781CE204F2E2C36480949D89
:1009ED00500302094EE4781CF2E4FF122A46781EE9
:1009FD00E2FE75F01C847828E5F0F2E2901D3E933E
:100A0D00FDC41354077826F2FBED1313540708F2B7
:100A1D00FAEE24F2FFE434FFFE7C007D1C122397D6
:100A2D007828EDF2E293FFC4135407FE08F2EF139A
:100A3D0013540708F2FCAF03AD0278ADEEF208ECEB
:100A4D00F2087407F2087401F208F2E4FB12243E76
:100A5D00781EE214F27F887E13122A8E781CE2042F
:100A6D00F2E2C3648094904080E4781CF2781CE23A
:100A7D00FEC3648094885021E2FDFFE478B6F2084D
:100A8D00F208EEF2E408F2FB121DA27F887E13122B
:100A9D002A8E781CE204F280D4781C7401F2781C42
:100AAD00E2FEC3648094875023E2FDFF78B674079D
:100ABD00F208F208EEF2E408F27B07121DA27F881D
:100ACD007E13122A8E781CE204F280D2781C7401F7
:100ADD00F2E4FF122A46781CE2FFC374079F7840A8
:100AED00F208F208F2E408F20804F27B077D077FB2
:100AFD00071211477F107E27122A8E781CE204F20E
:100B0D00E2C36480948840C9781C7401F2E4FF123A
:100B1D002A46781CE2FFC374079F7840F208F2085A
:100B2D00F2E408F20804F2E4FBFDFF1211477F1016
:100B3D007E27122A8E781CE204F2E2C36480948729
:100B4D0040CB781C7401F2E4FF122A46781CE2FFB8
:100B5D007840F208EFF208EFF2E408F20804F2E44C
:100B6D00FBFDFF1211477F107E27122A8E781CE2A3
:100B7D0004F2E2C36480948840CD781C7401F2E4E1
:100B8D00FF122A46781CE2FF7840F2C374079F08D3
:100B9D00F208F2E408F20804F2E4FBFD7F071211FB
:100BAD00477F107E27122A8E781CE204F2E2C3647E
:100BBD0080948740CA781C7401F2781CE2FFC364EC
:100BCD00809488502CC374079F7840F208EFF27818
:100BDD001CE27842F2087401F208F2E4FBFD7F0793
:100BED001211477F107E27122A8E781CE204F280A4
:100BFD00C9781C7401F2E4FF122A46781CE2FFC387
:100C0D0074079F7840F208EFF2781CE27842F20800
:100C1D007401F208F27B077D07E4FF1211477F1084
:100C2D007E27122A8E781CE204F2E2C36480948738
:020C3D0040C4B1
:010C3F002292
:100C4000782B7401F2E4FF122A4678407401F2080E
:100C50007407F208F2087401F208F27B067D06E4DC
:100C6000FF121147782BE2FFC374069FFBE2FE04DC
:100C70007840F2087407F2C39E08F2087401F20883
:100C8000F27D06121147782BE2FF047840F20874D7
:100C900007F208F2087401F208F27B067D061211D1
:100CA00047782BE2FFC374069FFB78407401F2087B
:100CB0007407F2C39F08F2087401F208F27D06E49B
:100CC000FF121147782BE2FFC374069FFD78407432
:100CD00001F2C374079F08F2087407F2087401F266
:100CE00008F27B06E4FF121147782BE2FFC374067B
:100CF0009FFBFDE2FE047840F2C374079E08F208F1
:100D0000F2087401F208F2121147782BE2FFC37463
:100D1000069FFDE2FE047840F2C374079E08F208C5
:100D20007407F2087401F208F27B06121147782B5F
:100D3000E2FFC374069FFBFD78407401F2C37407A1
:100D40009F08F208F2087401F208F2E4FF1211475A
:100D50007F307E75122A8E782BE204F2E2C394076C
:100D60005003020C45E4782BF2782BE2FF75F00675
:100D7000A4FE742D2FF8EEF2782BE204F2E2B40414
:100D8000E8E4782BF2E4FF122A46E4782CF2782C7F
:100D9000E2FFC394045061742D2FF8E275F01884BB
:100DA0007833E5F0F2E2901D5A93FFC4540F783186
:100DB000F2EF540F08F218E2FF08E2FDEF0478406A
:100DC000F2ED0408F2087401F208F208F2E4FB12F2
:100DD00011477831E2FF08E2FDEF047840F2ED04BC
:100DE00008F2087407F2087401F208F27B06121187
:100DF00047782CE204F28096E4782CF2782CE2FF1B
:100E0000C39404500E742D2FF8E204F2782CE204FF
:100E1000F280E97F107E27122A8E782BE204F2E21C
:100E2000C394235003020D85E4782BF2E4FF122AC9
:100E300046E4782CF2782CE2FFC394045061742DC0
:100E40002FF8E275F018847833E5F0F2E2901D5A3D
:100E500093FFC4540F7831F2EF540F08F218E2FFF9
:100E600008E2FDEF047840F2ED0408F2087401F2A4
:100E700008F208F2E4FB1211477831E2FF08E2FDC4
:100E8000EF047840F2ED0408F2087407F2087401E8
:100E9000F208F27B06121147782CE204F28096E405
:100EA000782CF2782CE2FFC39404500E742D2FF8A6
:100EB000E214F2782CE204F280E97F107E27122AF5
:100EC0008E782BE204F2E2C394235003020E2CE44A
:100ED000782BF2E4FF122A46E4782CF2782CE2FF19
:100EE000C394045063742D2FF8E275F0188478339E
:100EF000E5F0F2E2901D5A93FFC4540F7831F2EFFF
:100F0000540F08F218E2FF08E2FBEF047840F20801
:100F10007401F2EB0408F2087401F208F2E4FD1225
:100F200011477831E2FF08E2FBEF047840F20874E1
:100F300007F2EB0408F2087401F208F27D061211C0
:100F400047782CE204F28094E4782CF2782CE2FFCB
:100F5000C39404500E742D2FF8E204F2782CE204AE
:100F6000F280E97F107E27122A8E782BE204F2E2CB
:100F7000C394235003020ED3E4782BF2E4FF122A29
:100F800046E4782CF2782CE2FFC394045063742D6D
:100F90002FF8E275F018847833E5F0F2E2901D5AEC
:100FA00093FFC4540F7831F2EF540F08F218E2FFA8
:100FB00008E2FBEF047840F2087401F2EB0408F257
:100FC000087401F208F2E4FD1211477831E2FF08DB
:100FD000E2FBEF047840F2087407F2EB0408F20831
:100FE0007401F208F27D06121147782CE204F280B7
:100FF00094E4782CF2782CE2FFC39404500E742D04
:101000002FF8E214F2782CE204F280E97F107E27B8
:10101000122A8E782BE204F2E2C394245003020FCA
:101020007C782B7406F2E4FF122A4678407401F2B1
:10103000087407F208F2087401F208F27B067D06D4
:10104000E4FF121147782BE2FFC374069FFBE2FE18
:10105000047840F2087407F2C39E08F2087401F2A3
:1010600008F27D06121147782BE2FF047840F2085F
:101070007407F208F2087401F208F27B067D06128A
:101080001147782BE2FFC374069FFB78407401F28E
:10109000087407F2C39F08F2087401F208F27D0693
:1010A000E4FF121147782BE2FFC374069FFD7840DE
:1010B0007401F2C374079F08F2087407F208740100
:1010C000F208F27B06E4FF121147782BE2FFC374AB
:1010D000069FFBFDE2FE047840F2C374079E08F20F
:1010E00008F2087401F208F2121147782BE2FFC3EC
:1010F00074069FFDE2FE047840F2C374079E08F276
:10110000087407F2087401F208F27B06121147789E
:101110002BE2FFC374069FFBFD78407401F2C37499
:10112000079F08F208F2087401F208F2E4FF1211B6
:10113000477FB87E0B122A8E782BE214F2E2D3940A
:061140000040030210262E
:011146002286
:101B0700E47835F2E47834F27834E2FFC3940D5088
:101B17005EEF902ACE93FFC4540F601FEF540F78E7
:101B270036F204FBE478B6F2087407F208EBF20821
:101B37007401F2E4FDFF121DA2800A7834E2902AB4
:101B4700CE937836F27836E2FBE478B6F20874077B
:101B5700F208EBF2087401F2E4FDFF121DA2122A4B
:101B6700267F107E27122A8E7834E204F280997835
:101B770035E204F2E2C39405408A78357401F278BD
:101B870035E2FFC394085063EF94034006087404DA
:101B9700F280047836EFF2E47834F27834E2FFC367
:101BA70094185040EF901D5A93FFC4540F7837F2A2
:101BB700EF540F08F2FB18E2FDE478ADF2ED0408EC
:101BC700F2EB0408F2087401F208F2E4FF12243E73
:101BD700122A267F107E27122A8E7835E2FF18E216
:101BE7002FF280B77835E204F2809478357401F2E9
:101BF7007835E2FFC394085055EF94034006087404
:101C070004F280047836EFF2E47834F27834E2FFB5
:101C1700C394185032EF901D5A93FFC4540FFE78A7
:101C270037F2FDEF540F08F2FB78C47401F2E4FFBA
:101C37001228FE122A267F107E27122A8E7835E276
:0E1C4700FF18E22FF280C57835E204F280A289
:011C5500226C
:10285E00EE7057EF14B40B00505090287675F003BD
:10286E00A4C58325F0C5837302289702289A0228EF
:10287E009D0228A00228A30228A60228A90228AC9D
:10288E000228AF0228B20228B502272402229002A3
:10289E001EAF02145202000E021FB9021693022935
:0B28AE00AB0206AD020C40121B07221B
:102A60007401A805088002C333D8FC5F60047E01AE
:062A70008002E4FEAF0647
:012A7600223D
:102A7700EF75F00A84FE75F00AA4FDC3EF9DC394B9
:062A87000540010EAF0640
:012A8D002226
:0D2ADB00C3EF648094805004EFF404FF22E8
:0A28B90078B3EBF208EAF208E9F246
:1028C30008E2FB08E2FA08E2F912235AFF78B3E2BE
:1028D300FB08E2FA08E2F912235AFED39F401B7861
:1028E300B3E2FB08E2FA08E2F9EF12237308E2FB12
:0A28F30008E2FA08E2F9EE1223737E
:0128FD0022B8
:0F2AA200EFC39D5002AF05EFC39B5002AF03225D
:102A4600E4FEE4FDEE75F008A424632DF8EFF20D24
:092A5600EDB408F00EEEB408E93D
:012A5F002254
:07269A007839EEF208EFF2BF
:1026A100087406F2783BE2FFC36480947D4073EFC7
:1026B10064809480402EE408F2783CE2FFC3648099
:1026C1009488502018E2FEEF75F008A424642EF8D7
:1026D100E2FDEF75F008A424632EF8EDF2783CE2F8
:1026E10004F280D5783BE2C3648094845023E408EB
:1026F100F2783CE2FFC364809488501518E2FEEF43
:1027010075F008A424672EF8E4F2783CE204F28024
:10271100E07839E2FE08E2FF122A8E783BE214F2F9
:022721008082B4
:012723002293
:1028FE007401A807088002C333D8FC78C5F2F40827
:10290E00F278C4E26015EB75F008A424632DF8C0CC
:10291E0000E2FF78C5E2FEEF4E8013EB75F008A4DF
:10292E0024632DF8C000E2FF78C6E2FEEF5ED00011
:01293E00F2A6
:01293F002275
:10297D00E4FEEF75F008A42456F582E4341CF583CB
:10298D00E5822EF582E43583F583E493FCEE75F054
:0D299D0008A424632DF8ECF20EEEB408D56A
:0129AA00220A
:0227F900A90332
:1027FB00EFFB3395E0FAC3EB9480EA64809480504E
:10280B00047E0180027E00C3EF6480948040047BD1
:10281B000180027B00EE5B6039ED6007C3747F9F24
:10282B00FC8002AC07EC901CBE93FEC4135407FD56
:10283B00EE13135407FEEC935403FBD3EF64809415
:10284B00BF400474079BFBAF05AD0678C4E9F212D9
:02285B0028FE55
:01285D002258
:101D8A00FDE278ADFBE278B6F278AEE278B7F20817
:081D9A00EBF278B1E278B9F236
:061DA200A907AE03AC0529
:101DA80078B6E2C399FF78BEF278B7E2C39C78BFF1
:101DB800F278B8E2C39E78C0F2122ADBAA0718E2CA
:101DC800FF122ADBAD0708E2FF122ADBAB07AF02DE
:101DD800122AA278BAEFF2E975F00AA408F2EC75B3
:101DE800F00AA408F2EE75F00AA408F208E2FF333C
:101DF80095E0FE7C007D0A12238578BAE2FB3395D4
:101E0800E0FAAD03FC1223EC78BEEFF208E2FF33F0
:101E180095E0FE7C007D0A122385AD03AC021223F7
:101E2800EC78BFEFF208E2FF3395E0FE7C007D0A14
:101E380012238578BAE2FD3395E0FC1223EC78C0D2
:101E4800EFF2E4FA78BAE2C36480F8EA6480985062
:101E58004478BBE2FF122A77C00708E2FF122A770C
:101E6800AC0708E2FF122A77AB0778B9E278C4F228
:101E7800AD04D0071228FE78BEE2FF78BBE22FF24D
:101E880078BFE2FF78BCE22FF278C0E2FF78BDE2CB
:101E98002FF20A80AF78B6E2FF08E2FD08E2FB08FD
:071EA800E278C4F20228FEFB
:0A114700783DEFF208EDF208EBF23C
:10115100E47845F278B674FEF2087400F20874403F
:10116100F27BFE7A00793D1228B978B674FEF20856
:101171007400F2087441F27BFE7A00793E1228B9BC
:1011810078B674FEF2087400F2087442F27BFE7ABB
:1011910000793F1228B9783DE2FF7840E2FEEFD3B3
:1011A1009E50167845E2FE7401A807088002C333F9
:1011B100D8FC4E7845F20F80E17844E2FE700408D5
:1011C100E2F4F27843E26075EE6039783FE2FF784D
:1011D10042E2FEEFD39E4003021451783EE2FC78D6
:1011E10041E2FEECD39E5019EC75F008A424632F64
:1011F100F8C000E2FE7845E2FDEE4DD000F20C8031
:10120100DE0F80CB783FE2FF7842E2FEEFD39E40D3
:1012110003021451783EE2FC7841E2FEECD39E5089
:1012210019EC75F008A424632FF8C000E2FE78459C
:10123100E2FDEE5DD000F20C80DE0F80CB7844E25F
:10124100783F606BE2FE18E275F008A424632EF883
:10125100C000E2FE7845E2FDEE4DD000F2783FE2BB
:10126100FE7841E275F008A424632EF8C000E2FE86
:101271007845E2FDEE4DD000F27842E2FE783EE2A2
:1012810075F008A424632EF8C000E2FE7845E2FD63
:10129100EE4DD000F27842E2FE18E275F008A42487
:1012A100632EF8C000E2FE7845E2FDEE4D8069E272
:1012B100FE18E275F008A424632EF8C000E2FE785F
:1012C10045E2FDEE5DD000F2783FE2FE7841E27545
:1012D100F008A424632EF8C000E2FE7845E2FDEE9A
:1012E1005DD000F27842E2FE783EE275F008A42477
:1012F100632EF8C000E2FE7845E2FDEE5DD000F21B
:101301007842E2FE18E275F008A424632EF8C000CA
:10131100E2FE7845E2FDEE5DD000F27840E2FE7437
:1013210001A806088002C333D8FCFE783DE2FD74B3
:1013310001A805088002C333D8FC4E7845F218E2B3
:10134100FE700408E2F4F2EE70030213D1783FE27A
:10135100FC7842E2FEECD39E5033783EE2FF7841C6
:10136100E2FEEFD39E5019EF75F008A424632CF828
:10137100C000E2FE7845E2FDEE4DD000F20F80DEC6
:10138100783FE2FE7842E2C39E2CFC80C4783EE2C4
:10139100FC7841E2FEECD39E4003021451783FE217
:1013A100FF7842E2FEEFD39E5019EC75F008A424B9
:1013B100632FF8C000E2FE7845E2FDEE4DD000F269
:1013C1000F80DE783EE2FE7841E2C39E2CFC80C1B4
:1013D100783FE2FC7842E2FEECD39E5033783EE265
:1013E100FF7841E2FEEFD39E5019EF75F008A42477
:1013F100632CF8C000E2FE7845E2FDEE5DD000F21C
:101401000F80DE783FE2FE7842E2C39E2CFC80C46E
:10141100783EE2FC7841E2FEECD39E5033783FE225
:10142100FF7842E2FEEFD39E5019EC75F008A42438
:10143100632FF8C000E2FE7845E2FDEE5DD000F2D8
:101441000F80DE783EE2FE7841E2C39E2CFC80C430
:011451002278
:102422007855E2FEC374079EFF78ADEEF20874079A
:0C243200F208F2087401F208F2E4FBFD6D
:0A243E0078AAEFF208EDF208EBF2C5
:1024480078B674FEF2087400F20874AFF27BFE7A74
:102458000079AC1228B978B0E2602378ACE278B29F
:10246800F278AFE2FF78B2E2D39F505D78AAE2FF3C
:1024780008E278B2121D8A78B2E204F280E378AA00
:10248800E2FF08E2FD08E208121D8E78AAE2FF08C2
:10249800E278AF121D8A78ADE2FF08E2FD78ACE27F
:1024A800FB78B6EFF208EDF278AFE278B8121D9B30
:1024B80078AAE2FF08E2FD08E2FB78B6EFF208ED41
:0924C800F278AFE278B8121D9B16
:0124D10022E8
:082A00007846EFF2AC03A905D2
:102A0800E4FA7846E2FFAD02122A6078C4EFF2AF2A
:0D2A180001AD04AB021228FE0AEAB408E585
:012A2500228E
:102574007848EDF218EFF2C36480948040047F0140
:1025840080027F007847E2FEC36480948850047D13
:102594000180027D00ED5F600E7848E2FFC374079E
:1025A4009EFBE4FD122A007847E2FFC3648094880E
:1025B40040047E0180027E00C3EF64809490500446
:1025C4007F0180027F00EF5E600E7848E2FF18E230
:1025D40024F8FDE4FB122A007847E2FFC3648094E8
:1025E4009040047E0180027E00C3EF648094985082
:1025F400047F0180027F00EF5E600E7848E2FF18DE
:0A260400E224F0FB7D07122A0022F9
:072790007849EEF208EFF2B8
:10279700784C7417F2784CE2D3648094584052E432
:1027A70018F2784BE2FFC39428503508E22FFFC395
:1027B7006480948040047E0180027E00C3EF6480C1
:1027C700949850047D0180027D00ED5E600B784B8C
:1027D700E2901C9693FD122574784BE204F280C2B6
:1027E7007849E2FE08E2FF122A8E784CE214F28062
:0127F700A43D
:0127F80022BE
:0721A400784DECF208EDF2AA
:1021AB00EF700302226024FE60411460762402600B
:1021BB000302228FE4784FF2784FE2FFC39407407B
:1021CB000302228FEF75F008A4246AF8E4F2C374BB
:1021DB00069FFF749B2FF874FFF2784DE2FE08E226
:1021EB00FF122A8E784FE204F280CDE4784FF2781A
:1021FB004FE2FFFDC374079DFD749B2DF8E4F2C302
:10220B0074069F75F008A42463F874FFF2784DE20E
:10221B00FE08E2FF122A8E784FE204F2E2C3940723
:10222B0040CD22E4784FF2784FE2FFC374079F75DD
:10223B00F008A42463F8E4F274642FF874FFF278C6
:10224B004DE2FE08E2FF122A8E784FE204F2E2C35F
:10225B00940740D322E4784FF2784FE2FFC3940700
:10226B00502274632FF8E4F2EF75F008A42472F88F
:10227B0074FFF2784DE2FE08E2FF122A8E784FE2ED
:04228B0004F280D504
:01228F00222C
:07184D007850ECF208EDF207
:10185400EF700302196124FE605714700302190922
:10186400240260030219B0E47852F27852E2FDE4F3
:1018740078B6F208EDF2087407F2E408F2FBFF12FE
:101884001DA27852E204FF78B6F2087407F208F257
:10189400087401F2E4FB7D07121DA27850E2FE08F1
:1018A400E2FF122A8E7852E204F2E2C3940740BBAC
:1018B40022E47852F27852E2FFC3940740030219FB
:1018C400B078B6EFF2087407F208F2E408F2FB7D90
:1018D40007121DA27852E2FFC374069FFD78B67406
:1018E40007F208EDF2087407F2087401F2E4FB7FD2
:1018F40007121DA27850E2FE08E2FF122A8E7852E7
:10190400E204F280B0E47852F27852E2FFC3940722
:1019140040030219B0C374079FFD78B67407F20838
:10192400EDF2087407F2E408F2FB7F07121DA278B7
:1019340052E2FFC374069FFF78B6F2E408F208741B
:1019440007F2087401F2E4FBFD121DA27850E2FED6
:1019540008E2FF122A8E7852E204F280ACE4785254
:10196400F27852E2FFC394075042C374079FFF7892
:10197400B6F2E408F2087407F2E408F2FBFD121D63
:10198400A27852E204FDE478B6F208EDF208740796
:10199400F2087401F2E4FBFF121DA27850E2FE0883
:0C19A400E2FF122A8E7852E204F280B5B5
:0119B0002214
:0719B1007853ECF208EDF29F
:1019B800EF7003021AC424FE6067147003021A68E9
:1019C80024026003021B06E47855F27855E2FD789C
:1019D800AD7407F2C39D08F2087407F2087401F2A7
:1019E80008F2E4FBFF12243E7853E2FE08E2FF12FD
:1019F8002A8E7855E2FFC39407501AE478ADF208AE
:101A0800EFF2087407F2087401F2E408F2FB7D03B0
:101A18007F0312243E7855E204F2E2C3940840ABF7
:101A280022E47855F21224227853E2FE08E2FF12EB
:101A38002A8E7855E2FFC39407501978ADEFF20863
:101A48007407F208F2087401F2E408F2FB7D047FDF
:101A58000312243E7855E204F2E2C3940840C622F9
:101A6800E47855F27855E2FD78AD7407F2C39D0825
:101A7800F2087407F2087401F208F2E4FBFF12247A
:101A88003E7853E2FE08E2FF122A8E7855E2FFC341
:101A98009407501C78AD7407F2C39F08F2087407C6
:101AA800F2087401F2E408F2FB7D047F0412243E7C
:101AB8007855E204F2E2C3940840A922E47855F28A
:101AC8001224227853E2FE08E2FF122A8E7855E2A9
:101AD800FFC39407501DC374079F78ADF2E408F262
:101AE800087407F2087401F2E408F2FB7D037F042E
:0E1AF80012243E7855E204F2E2C3940840C284
:011B060022BC
:0A2940007856EFF208ECF208EDF211
:10294A00E408F2E4FF7856E275F008A424632FF84D
:10295A00C000E2C313D000F20FEFB408E87857E2E0
:10296A00FE08E2FF122A8E7859E204F2E2C39408C2
:02297A0040D14A
:01297C002238
:0A20B30078A4EFF208ECF208EDF259
:1020BD00E478A9F278A7F278A7E2FFC39408400369
:1020CD000221A3EFC394075008EF04FF78AD12244B
:1020DD002E78A9E2FF78ADF2087407F208F20874C1
:1020ED0001F2E408F2FBFD12243EE478A8F218E2B6
:1020FD000478A9F2E4FF78A7E2FEEFD39E501474A2
:10210D0001A807088002C333D8FCFE78A8E24EF27E
:10211D000F80E3E4FFEF75F008A42466F8C000E239
:10212D00FE78A4E275F008A42456F582E4341CF57B
:10213D0083E5822FF582E43583F583E493FD78A85A
:10214D00E2FCED5CFDEE4DD000F2EF75F008A4243D
:10215D0067F8C000E2FE78A4E275F008A42456F5F5
:10216D0082E4341CF583E5822FF582E43583F58313
:10217D00E493FD78A8E2FCED5CFDEE4DD000F20F8E
:10218D00EFB4089178A5E2FE08E2FF122A8E78A737
:06219D00E204F20220C47E
:0121A3002219
:102A2600E4FFE4FEEF75F008A424632EF8C000E28C
:0F2A360025E0D000F20EEEB408EA0FEFB408E38B
:012A4500226E
:082AE8007F077E02DEFEDFFA2B
:012AF00022C3
:102A8E00AD07AC06ED1DAE0470011C4E6005122A9A
:042A9E00E880F122B9
:101C56001824202834243408181C18181818183C7E
:101C66003C666630180C06F63C6660386060663C7A
:101C760030383C3E367E30303C3C181818183C3C18
:101C860066FFFFFF7E3C18186666666666667E3CE3
:101C960081FF8100FF81817E00FF898900F8272767
:101CA600F8008F8989F900FF8181FF00FF09090982
:101CB60001000101FF0101000020406080A0C0E09A
:101CC600E4E8ECF0F4F8FCDCBC9C7C5C3C1C1814EE
:101CD600100C080425456585A5C5C9CDD1D5D9B94A
:101CE6009979593935312D294A6A8AAAAEB2B696FA
:101CF6007656524E6F8F93736F8F93734A6A8AAA82
:101D0600AEB2B6967656524E25456585A5C5C9CD61
:101D1600D1D5D9B99979593935312D290020406065
:101D260080A0C0E0E4E8ECF0F4F8FCDCBC9C7C5C51
:101D36003C1C1814100C08040020406080A0C0E071
:101D4600E4E8ECF0F4F8FCDCBC9C7C5C3C1C18146D
:101D5600100C080400010203040506162636465632
:101D6600666564636261605040302010FF89F593B8
:101D760093F589FF0E1F3F7E7E3F1F0E183C7EFFA8
:041D860018181818F9
:0D2AC000885B0102040810204080815A004C
:0F2AB10075A882758801758CC0E4F58AD28C22D5
:03000B000224D2FA
:1024D200C0E0C0F0C083C082C0D075D000C000C0D0
:0D24E20001C002C003C004C005C006C00751
:1024EF0075900078A3E4F278A3E2FFC39408503408
:1024FF007401A807088002C333D8FCF5A07F037EC0
:10250F0000122A8E78A3E2FF785AE275F008A4240D
:10251F00632FF8E2F5807F037E00122A8E78A3E204
:10252F0004F280C3785AE2FF7401A807088002C33F
:10253F0033D8FCF590EFC39407785A5005E204F2B4
:0A254F008002E4F2758CC0758A006A
:10255900D007D006D005D004D003D002D001D000D6
:0B256900D0D0D082D083D0F0D0E03280
:0300000002260EC7
:0C260E00787FE4F6D8FD758107022655A0
:10235A00BB010689828A83E0225002E722BBFE0281
:09236A00E32289828A83E49322B4
:10237300BB010689828A83F0225002F722BBFE0149
:02238300F32243
:10238500EF8DF0A4A8F0CF8CF0A428CE8DF0A42E6C
:02239500FE2226
:10239700BC000BBE0029EF8DF084FFADF022E4CC2A
:1023A700F875F008EF2FFFEE33FEEC33FCEE9DECF3
:1023B700984005FCEE9DFE0FD5F0E9E4CEFD22ED39
:1023C700F8F5F0EE8420D21CFEADF075F008EF2F83
:1023D700FFED33FD4007985006D5F0F222C398FD74
:0523E7000FD5F0EA2211
:1023EC00C2D5EC30E709B2D5E4C39DFDE49CFCEE0C
:1023FC0030E715B2D5E4C39FFFE49EFE122397C3CA
:10240C00E49DFDE49CFC800312239730D507C3E4C4
:06241C009FFFE49EFE227A
:10261A000229D6E493A3F8E493A34003F68001F2D7
:10262A0008DFF48029E493A3F85407240CC8C333C1
:10263A00C4540F4420C8834004F456800146F6DF90
:10264A00E4800B0102040810204080902AC0E47E36
:10265A00019360BCA3FF543F30E509541FFEE49385
:10266A00A360010ECF54C025E060A840B8E493A34C
:10267A00FAE493A3F8E493A3C8C582C8CAC583CA77
:10268A00F0A3C8C582C8CAC583CADFE9DEE780BE2F
:012ACD000008
:00000001FF
